:100000000C9494010C943E120C946B120C942E0FD1
:100010000C94BC010C94580F0C94BC010C94BC01C2
:100020000C94BC010C94BC010C94BC010C94BC015C
:100030000C94BC010C94BC010C94BC010C94BC014C
:100040000C9498120C94BC010C9481140C94CF1451
:100050000C94BC010C94BC010C94BC010C94BC012C
:100060000C94BC010C94BC010001020304050A0BB2
:100070000C0D0E0F111213141516CF01D501DB0153
:10008000E301EC01F601FF0106020E0215021C025B
:100090002402504120506F77657209203D2025537E
:1000A0000D0A00435243204C656E67746809203D79
:1000B0002025530D0A004D6F64656C0909203D2011
:1000C00025530D0A00446174612052617465092052
:1000D0003D2025530D0A0044594E50442F464541BA
:1000E0005455524500434F4E4649470052465F53D0
:1000F000455455500052465F434800454E5F5258A4
:100100004144445200454E5F41410052585F5057B0
:100110005F50302D360054585F41444452005258CD
:100120005F414444525F50322D350052585F414484
:1001300044525F50302D31000D0A002530327800D6
:10014000203078002553092563203D000D0A00204A
:10015000307825303278002553092563203D004F43
:100160004253455256455F54583D253032783A2027
:10017000504F4C535F434E543D2578204152435FCE
:10018000434E543D25780D0A0053544154555309AC
:1001900009203D203078253032782052585F445273
:1001A0003D25782054585F44533D2578204D4158D3
:1001B0005F52543D25782052585F505F4E4F3D2589
:1001C000782054585F46554C4C3D25780D0A003137
:1001D0004D42505300324D425053003235304B4265
:1001E0005053006E524632344C3031006E5246321B
:1001F000344C30312B0044697361626C65640038A3
:100200002062697473003136206269747300504152
:100210005F4D494E0050415F4C4F570050415F4881
:100220004947480050415F4D41580000C20100015C
:1002300000110011000C0000E100000A002500255B
:100240000021000096000019003900390036001224
:100250007A00001F00460046004400807000002223
:10026000004D004D004A00004B000036007500753F
:10027000007200403800004A009C009C00990080F9
:100280002500007200EC00EC00E900C0120000E95B
:1002900000DA01DA01D70160090000D701B603B620
:1002A00003B303B0040000B3036E076E076B075877
:1002B0000200006E07DC0EDC0ED80E2C010000DC04
:1002C0000EC11DC11DBE1D00000000240027002A14
:1002D0000000000000250028002B00000000002383
:1002E0000026002900040404040404040402020299
:1002F0000202020303030303030102040810204067
:1003000080010204081020010204081020000000EF
:1003100007000201000003040600000000000000C6
:10032000000024053B161D0511241FBECFEFD8E0A9
:10033000DEBFCDBF11E0A0E0B1E0E4E2F1E302C036
:1003400005900D92A03EB107D9F713E0A0EEB1E001
:1003500001C01D92AB32B107E1F713E0C6E2D3E072
:1003600004C02297FE010E944A18C232D107C9F781
:100370000E9491160C9485180C940000FC010590C5
:100380000020E9F7809590958E0F9F1F0895FB013F
:10039000DC0102C001900D9241505040D8F7089501
:1003A0000F931F93CF93DF938C01EB01009731F4F0
:1003B0006115710519F420E030E038C081E090E06B
:1003C0006EE070E00E943B04FC019C01009771F11B
:1003D00080E88383209771F0D387C28781E8838385
:1003E0008091250390912603892B21F4F093260315
:1003F000E093250301151105C9F01187008783815A
:10040000826083838091270390912803892B71F464
:10041000F0932803E09327038091290390912A0306
:10042000892B21F4F0932A03E0932903C901DF917A
:10043000CF911F910F910895A0E0B0E0E2E2F2E0C9
:100440000C945E18FE01359661917191809127039D
:1004500090912803AF010E945E022096E2E00C9486
:100460007A18A0E0B0E0E7E3F2E00C945E18FE0139
:10047000359661917191A0912703B091280313964D
:100480008C911397886013968C9380912703909199
:100490002803AF010E945E02E0912703F091280338
:1004A0002381277F23832096E2E00C947A186091C1
:1004B0002703709128030E9474040895ABE0B0E014
:1004C000E4E6F2E00C944E183C012B015A01FC01C9
:1004D00017821682838181FD03C06FEF7FEFC6C153
:1004E0009AE0892E1E010894211C311CF3012381FE
:1004F000F20123FD859123FF81912F01882309F4C7
:10050000B2C1853239F423FD859123FF81912F01FA
:10051000853229F490E0B3010E947404E7CF982F4C
:10052000FF24EE249924FFE1FF15D0F09B3269F0FF
:100530009C3228F4903259F0933291F40EC09D32DF
:1005400049F0903369F441E024C052E0F52A84E098
:10055000F82A28C098E0F92A25C0E0E1FE2A22C046
:10056000F7FC29C0892F80538A3070F4F6FE05C04D
:10057000989C902C1124980E15C0E89CE02C112416
:10058000E80EF0E2FF2A0EC09E3229F4F6FC6BC1A1
:1005900040E4F42A07C09C3619F450E8F52A02C05A
:1005A000983649F4F20123FD959123FF91912F0193
:1005B000992309F0B8CF892F8554833018F08052E1
:1005C000833038F444E050E0A40EB51E5FE3598355
:1005D0000FC0933631F0933779F0933509F056C058
:1005E00020C0F5018081898342E050E0A40EB51E51
:1005F000610101E010E012C0F501C080D180F6FC7D
:1006000003C06FEF7FEF02C0692D70E042E050E061
:10061000A40EB51EC6010E9469048C015FE7F52295
:1006200014C0F501C080D180F6FC03C06FEF7FEFEE
:1006300002C0692D70E042E050E0A40EB51EC60174
:100640000E9457048C0150E8F52AF3FE07C01AC037
:1006500080E290E0B3010E947404EA948E2D90E051
:1006600008171907A8F30EC0F601F7FC8591F7FEED
:1006700081916F0190E0B3010E947404E110EA944B
:10068000015010400115110579F7EAC0943611F0B8
:10069000993669F5F7FE08C0F50120813181428164
:1006A000538184E090E00AC0F501808191819C0132
:1006B000442737FD4095542F82E090E0A80EB91EE4
:1006C0009FE6F92257FF09C0509540953095219536
:1006D0003F4F4F4F5F4FE0E8FE2ACA01B901A10129
:1006E0002AE030E00E94A004D82ED21840C09537EE
:1006F00029F41F2D1F7E2AE030E01DC01F2D197F19
:100700009F3661F0903720F4983509F0ACC00FC0E7
:10071000903739F0983709F0A6C004C028E030E0DF
:100720000AC0106114FD146020E130E004C014FD23
:10073000166020E132E017FF08C0F5016081718189
:100740008281938144E050E008C0F501808191816D
:10075000BC0180E090E042E050E0A40EB51EA10193
:100760000E94A004D82ED2188FE7F82EF122F6FEB0
:100770000BC05EEFF522D91438F4F4FE07C0F2FC8A
:1007800005C08FEEF82202C01D2D01C0192DF4FE08
:100790000DC0FE01ED0DF11D8081803319F499EE3D
:1007A000F92208C01F5FF2FE05C003C08F2D8678B6
:1007B00009F01F5F0F2DF3FC14C0F0FE0FC01E15D3
:1007C00010F09D2C0BC09D2C9E0C911A1E2D06C066
:1007D00080E290E0B3010E9474041F5F1E15C0F315
:1007E00004C01E1510F4E11A01C0EE2404FF0FC06E
:1007F00080E390E0B3010E94740402FF1DC001FD7C
:1008000003C088E790E00EC088E590E00BC0802F21
:10081000867891F001FF02C08BE201C080E2F7FC14
:100820008DE290E0B3010E94740406C080E390E082
:10083000B3010E9474049A94D914C0F3DA94F101BC
:10084000ED0DF11D808190E0B3010E947404DD2064
:10085000A9F706C080E290E0B3010E947404EA9414
:10086000EE20C1F743CEF30166817781CB012B9651
:10087000E2E10C946A180F931F93CF93DF93689F64
:100880008001699F100D789F100D1124C8010E94EE
:10089000CA16EC01009729F060E070E0A8010E9400
:1008A0006204CE01DF91CF911F910F910895FC0159
:1008B0000590615070400110D8F7809590958E0F8B
:1008C0009F1F0895DC0101C06D9341505040E0F737
:1008D0000895FC016150704001900110D8F7809597
:1008E00090958E0F9F1F08950F931F93CF93DF93C3
:1008F0008C01EB018B8181FF1BC082FF0DC02E811B
:100900003F818C819D812817390764F4E881F98142
:100910000193F983E88306C0E885F985802F09955E
:10092000892B31F48E819F8101969F838E8302C033
:100930000FEF1FEFC801DF91CF911F910F91089525
:10094000FA01AA27283051F1203181F1E8946F9300
:100950006E7F6E5F7F4F8F4F9F4FAF4FB1E03ED0A6
:10096000B4E03CD0670F781F891F9A1FA11D680F44
:10097000791F8A1F911DA11D6A0F711D811D911D77
:10098000A11D20D009F468943F912AE0269F1124EC
:100990003019305D3193DEF6CF010895462F477050
:1009A000405D4193B3E00FD0C9F7F6CF462F4F70AB
:1009B000405D4A3318F0495D31FD4052419302D009
:1009C000A9F7EACFB4E0A6959795879577956795AF
:1009D000BA95C9F700976105710508959B01AC01AF
:1009E0000A2E06945795479537952795BA95C9F7D6
:1009F000620F731F841F951FA01D089581309105FC
:100A000091F46F5F7F4FC1F480EE91E069E04AE0BE
:100A10000E94630781EF91E067E070E048E050E0FA
:100A20000E94190E0895892B39F46F5F7F4F21F4CE
:100A300081EF91E00E947410089580E090E06FEFE4
:100A40007FEF0E94FE04089581E090E06FEF7FEF5A
:100A50000E94FE040895DF93CF9300D00F92CDB78C
:100A6000DEB780EE91E0BE016F5F7F4FAE014E5F5B
:100A70005F4F9E012D5F3F4F0E94B40889818823FC
:100A800011F180911B0290911C02019759F400D042
:100A900080E091E0EDB7FEB7928381830E941C0253
:100AA0000F900F9080911B0290911C02029759F4B5
:100AB00000D08AE091E0EDB7FEB7928381830E9477
:100AC0001C020F900F908A81882311F180911B02E4
:100AD00090911C02019759F400D08DE191E0EDB79F
:100AE000FEB7928381830E941C020F900F90809129
:100AF0001B0290911C02029759F400D08BE291E006
:100B0000EDB7FEB7928381830E941C020F900F9075
:100B10008B81882339F480EE91E00E94090B8823B1
:100B200009F474C080911B0290911C02019731F569
:100B300080EE91E06EE172E044E00E94E20800D0B5
:100B400000D000D080E491E0EDB7FEB792838183BE
:100B500080911E0290911F02A0912002B09121026B
:100B600083839483A583B6830E941C028DB79EB7AE
:100B700006960FB6F8949EBF0FBE8DBF80911B02E4
:100B800090911C02029709F041C080EE91E062E270
:100B900072E044E00E94E20800D000D000D08AE475
:100BA00091E0EDB7FEB7928381838091220290910C
:100BB0002302A0912402B091250283839483A5830C
:100BC000B6830E941C028DB79EB706960FB6F894A6
:100BD0009EBF0FBE8DBF80EE91E061E04EE152E01E
:100BE00024E00E94D70780911E0290911F02A091DD
:100BF0002002B09121020196A11DB11D80931E0219
:100C000090931F02A0932002B09321020F900F90A7
:100C10000F90CF91DF91089580910D0260E00E94C6
:100C2000D91380910D0261E00E94D91364EF71E045
:100C300080E090E00E94061308950F931F93CF93D6
:100C4000DF9300D08CE591E0ADB7BEB712969C93D0
:100C50008E9311970E941C02CFE0D2E00F900F906C
:100C60000BE611E000D000D0EDB7FEB73196ADB77E
:100C7000BEB712961C930E931197899182831382AB
:100C80000E941C020F900F900F900F908DE290E049
:100C90000E945702B2E0CB31DB0721F700D08EE68D
:100CA00091E0EDB7FEB7928381830E941C020F9002
:100CB0000F90DF91CF911F910F91089580911B02AA
:100CC00090911C020197D1F481EF91E06FE072E006
:100CD0000E94B90D80931D02882381F00E940C06AA
:100CE0000E941D0664E670E080E090E00E9406131A
:100CF00080EE91E00E943D0810921D02089584E567
:100D000097E060E070E00E94D0010895EF92FF92BA
:100D10000F931F9385E060E00E949A1385E061E0E5
:100D20000E94D91364E170E080E090E00E94061315
:100D300085E00E942D14892B19F081E090E002C01B
:100D400082E090E090931C0280931B028FEF92E070
:100D500040E855E260E070E00E940A150E947F06BC
:100D600080910D0261E00E949A1380910D0261E072
:100D70000E94D91300D081E791E0EDB7FEB79283CE
:100D800081830E941C0200D081E991E0EDB7FEB79B
:100D900092838183E0911B02F0911C02EE0FFF1FF2
:100DA000EC54FE4F80819181EDB7FEB7948383832D
:100DB0000E941C020F900F900F900F9080EE91E018
:100DC0000E94C30B80EE91E063E00E94F90980EE7F
:100DD00091E062E070E00E94C50980EE91E061E080
:100DE00070E00E94990980EE91E06FE04FE00E9470
:100DF000AA0880EE91E00E94120A80911B02909155
:100E00001C020197E1F480EE91E001E71DEC2BEA72
:100E10003DEC4BEA50E060E070E00E94220980EE79
:100E200091E061E05CE7E52E48E6F42E02E51DE482
:100E300024E530E040E050E00E944F0A1FC080EE01
:100E400091E00CE718E622E53DE444E550E060E07F
:100E500070E00E94220980EE91E061E031E7E32E2C
:100E60002DECF22E0BEA1DEC2BEA30E040E050E0D6
:100E70000E944F0A80EE91E00E94290B80EE91E0E3
:100E80000E94040D62E370E080E090E00E9406138F
:100E900080E06BE275E042E050E00E941B121F917F
:100EA0000F91FF90EF9008950F931F93082F112734
:100EB00007FD10958FEF92E0602F0E94FB15C8018F
:100EC0001F910F910895FC0160834183128280E29B
:100ED0008383148285E08287089570E08DB79EB782
:100EE0000E970FB6F8949EBF0FBE8DBFEDB7FEB73D
:100EF000319689E891E0ADB7BEB712969C938E9378
:100F0000119773836283CB0156E0969587955A9526
:100F1000E1F78170907095838483CB0145E09695CD
:100F200087954A95E1F78170907097838683CB010E
:100F300034E0969587953A95E1F7817090709187A6
:100F40008087CB019595879587709070938782876E
:100F500061707070758764870E9431028DB79EB78B
:100F60000E960FB6F8949EBF0FBE8DBF0895FC017C
:100F700090818181981719F0892F0E94D9130895C3
:100F8000FF920F931F938C01F62E81E00E948E0E2C
:100F900080E00E94970E84E00E949C0EF8018181FF
:100FA0006F2D0E94D9131F910F91FF900895EF921A
:100FB000FF920F931F93CF93DF93EC01162F042F13
:100FC000F52EE22E60E00E94C0071770186A1EBD61
:100FD0000DB407FEFDCF802F9F2D9C01F9012E2D12
:100FE000213208F020E28EB508C080818EBD0DB49C
:100FF00007FEFDCF31968EB521502223B1F7CE01E9
:1010000061E00E94C007DF91CF911F910F91FF9087
:10101000EF900895CF93DF93EC0160E00E94C0074A
:1010200080E58EBD0DB407FEFDCF8EB583E78EBD86
:101030000DB407FEFDCF8EB5CE0161E00E94C00762
:10104000DF91CF9108951F93CF93DF93EC01162F7B
:1010500060E00E94C0071EBD0DB407FEFDCF1EB5A7
:10106000CE0161E00E94C007812FDF91CF911F91D7
:1010700008956FEF0E942308089561EE0E942308EF
:10108000089562EE0E9423080895EF92FF920F9355
:101090001F93CF93DF93EC01F62EE72E9B81142F45
:1010A000941708F4192F8C81882311F000E002C0F6
:1010B000092F011BCE0160E00E94C00781E68EBDB2
:1010C0000DB407FEFDCF8F2D9E2D9C01F901FEB4BE
:1010D0009FEF07C09EBD0DB407FEFDCF8EB5819377
:1010E00011501123B9F707C08EBD0DB407FEFDCF17
:1010F0009EB5015001C08FEF0023B1F7CE0161E032
:101100000E94C0078F2DDF91CF911F910F91FF900B
:10111000EF9008950F931F93CF93DF93EC01162F59
:10112000042F60E00E94C0071F7110621EBD0DB445
:1011300007FEFDCF1EB50EBD0DB407FEFDCF8EB56B
:10114000CE0161E00E94C007812FDF91CF911F91F6
:101150000F910895262F4F702295207F242B64E055
:10116000422F0E948A080895CF92DF92EF92FF9259
:101170000F931F938B017A01690167E040E70E949A
:101180008A0890E09C01E5E036952795EA95E1F71D
:101190002170F801208374E0969587957A95E1F7A0
:1011A000282F2170F701208396958795969587952E
:1011B0008170F60180831F910F91FF90EF90DF9077
:1011C000CF9008950F931F938C010E944508C8018A
:1011D00067E040E70E948A081F910F910895462F0B
:1011E000603808F04FE765E00E948A080895EF92A2
:1011F000FF920F931F93CF93DF937C01162FEA0189
:10120000022F60E00E94C0071F7110621EBD0DB466
:1012100007FEFDCF1EB508C088818EBD0DB407FE48
:10122000FDCF21968EB501500023B1F7C70161E0D3
:101230000E94C007812FDF91CF911F910F91FF90E6
:10124000EF900895EF92FF920F931F93DF93CF9348
:10125000CDB7DEB728970FB6F894DEBF0FBECDBF6F
:101260007C0109831A832B833C834D835E836F83C8
:1012700078878E010F5F1F4F6AE0A801F701228572
:101280000E94F708C70160E1A801F70122850E94CA
:10129000F708C70161E1F70143810E948A08289697
:1012A0000FB6F894DEBF0FBECDBFCF91DF911F9177
:1012B0000F91FF90EF9008951F93CF93DF93EC0170
:1012C000162F60E00E94C0071F711EBD0DB407FEFF
:1012D000FDCF8EB58FEF8EBD0DB407FEFDCF1EB5D1
:1012E000CE0161E00E94C007812FDF91CF911F9155
:1012F0000895EF92FF921F937C0160E00E945C09C9
:10130000182FC70161E00E945C091C7013FD05C025
:10131000882319F420E030E007C012FD03C021E06B
:1013200030E002C022E030E0C9011F91FF90EF9051
:1013300008950F931F93CF93DF938C01EB0160E02F
:101340000E945C09482F437F209729F0219711F4D0
:10135000486001C04C60C80160E00E948A08DF91CB
:10136000CF911F910F91089566E00E945C098872E9
:10137000803219F422E030E006C020E030E088300E
:1013800011F421E030E0C9010895FF920F931F93FB
:10139000CF93DF93EC018B0166E00E945C09F7EDCF
:1013A000FF2EF8220230110511F480E204C0013052
:1013B000110511F488E0F82ACE0166E04F2D0E9455
:1013C0008A08CE0166E00E945C0990E08F1509F45E
:1013D00091E0892FDF91CF911F910F91FF90089598
:1013E00066E00E945C0990E0867090709595879504
:1013F00008951F93CF93DF93EC01162F66E00E94B0
:101400005C09143010F047E003C0412F440F4F5FD8
:10141000887F482BCE0166E00E948A08DF91CF9139
:101420001F9108950F931F938C010E940A08C80111
:101430006DE10E945C09482F4660C8016DE10E9481
:101440008A08C8016CE10E945C09482F4360C8010A
:101450006CE10E948A0881E0F80184831F910F915A
:101460000895FF920F931F938C01F62E62E00E9465
:101470005C09E8E6F0E0EF0DF11DE49141E050E099
:1014800002C0440F551FEA95E2F740954823C80172
:1014900062E00E948A081F910F91FF900895BF9209
:1014A000CF92DF92EF92FF920F931F93DF93CF9330
:1014B000CDB7DEB728970FB6F894DEBF0FBECDBF0D
:1014C0006C01B62EE982FA820B831C832D833E8346
:1014D0004F835887662369F49C012B5F3F4FFC01C3
:1014E0004285C901BE016F5F7F4F50E00E94C70176
:1014F00007C0F6E0F61708F43EC081E0681769F40B
:10150000EB2DF0E0E259FF4FE491C6016E2FAE01E2
:101510004F5F5F4FF60122850BC0E62FF0E0E259E6
:10152000FF4FE491C6016E2FAE014F5F5F4F21E088
:101530000E94F7080B2D10E0F801EC58FF4FE491E2
:10154000C6016E2FF60143810E948A08C60162E03F
:101550000E945C0908591F4FF801649121E030E0B6
:1015600002C0220F331F6A95E2F7482F422BC601B3
:1015700062E00E948A0828960FB6F894DEBF0FBE7C
:10158000CDBFCF91DF911F910F91FF90EF90DF9032
:10159000CF90BF9008950F931F93CF93DF93EC01EB
:1015A0008B018F85882399F00E94E0122B853C8562
:1015B0004D855E85621B730B840B950B60527340E7
:1015C00080409040F0F48F858823D9F0EDCFCE0194
:1015D00067E10E945C0980FF02C080E00DC0011538
:1015E000110549F0CE010E94390890E09595879544
:1015F0008770F801808381E0DF91CF911F910F9177
:1016000008950E94E0126B877C878D879E871F86D6
:10161000DECF60E070E00E94CB0A0895CF93DF93A5
:10162000EC0160E00E945C0981FD10C0CE0160E029
:101630000E945C09482F4260CE0160E00E948A0847
:1016400065E070E080E090E00E940613DF91CF91AA
:101650000895CF93DF93EC010E940E0BCE0160E062
:101660000E945C09482F4160CE0160E00E948A0818
:10167000CE0167E040E70E948A088D81882349F007
:10168000AE014B5F5F4FCE016AE02A850E94F708EA
:1016900004C0CE0160E00E94310ACE016DE10E94DB
:1016A0005C0981FF03C0CE010E943D08CE0161E0CC
:1016B0000E94B707DF91CF910895CF92DF92FF92FA
:1016C0000F931F93CF93DF936C01EB01042FF22E46
:1016D000CB010E94BE01089710F020E001C029E074
:1016E00000D000D000D0EDB7FEB7319687E591E08D
:1016F000ADB7BEB712969C938E931197D383C283D6
:10170000822F992787FD9095958384830E943102CB
:10171000EDB7FEB736960FB6F894FEBF0FBEEDBF1D
:10172000CFE4D1E01BC0102F1F5FC601602F0E94C5
:101730005C0900D000D0EDB7FEB73196ADB7BEB7AB
:101740001296DC93CE931197828313820E9431020A
:10175000FA94012F0F900F900F900F90FF2019F720
:1017600000D08CE491E0EDB7FEB7928381830E94B4
:1017700031020F900F90DF91CF911F910F91FF9049
:10178000DF90CF900895CF93DF93EC01988189810A
:10179000981721F0892F61E00E949A13998188811E
:1017A000891721F0892F61E00E949A130E94AD0EE3
:1017B000CE0160E00E94B707CE0161E00E94C00741
:1017C00065E070E080E090E00E940613CE0165E0E5
:1017D0004FE00E94AA08CE0162E070E00E94C509B5
:1017E000882311F081E08A83CE0160E070E00E94DE
:1017F000C509CE0162E070E00E949909CE0167E060
:1018000040E70E948A08CE016CE40E94EF08CE01F6
:101810000E944108CE010E943D08CE010E940E0B9D
:10182000CE0160E00E945C09482F4E7FCE0160E04F
:101830000E948A08DF91CF910895EF92FF920F9353
:101840001F93CF93DF937C01162FEA01022F60E0F4
:101850000E94C0071F711EBD0DB407FEFDCF1EB54F
:101860009FEF07C09EBD0DB407FEFDCF8EB58993D7
:1018700001500023B9F7C70161E00E94C007812F22
:10188000DF91CF911F910F91FF90EF9008952F92CC
:101890003F924F925F926F927F928F929F92AF9200
:1018A000BF92CF92DF92EF92FF920F931F93DF933D
:1018B000CF93CDB7DEB75C018B01C42ED22E6DB6AF
:1018C0007EB6CB010E94BE01089710F020E001C057
:1018D00029E000D000D000D0EDB7FEB7319684E407
:1018E00091E0ADB7BEB712969C938E931197138378
:1018F0000283822F992787FD9095958384830E9488
:101900003102EDB7FEB736960FB6F894FEBF0FBEA4
:10191000EDBF40E4242E41E0342E3BE3432E31E082
:10192000532E4CC09DB68EB6D5011A960C9110E080
:10193000EDB7FEB7E01BF10B0FB6F894FEBF0FBE7C
:10194000EDBFEDB6FEB60894E11CF11C202FC501D9
:101950006C2DA7010E941D0C00D0ADB7BEB712962A
:101960003C922E9211970E9431020E0D1F1D0F9076
:101970000F9015C000D000D0EDB7FEB73196ADB7CF
:10198000BEB712965C924E921197D8018C918283C9
:1019900013820E9431020F900F900F900F90015010
:1019A00010400E151F0530F7C394892D982D9C010A
:1019B0000FB6F8943EBF0FBE2DBFDA94DD2009F0BC
:1019C000B1CF00D088E391E0EDB7FEB79283818379
:1019D0000E9431020F900F900FB6F8947EBE0FBE9A
:1019E0006DBECF91DF911F910F91FF90EF90DF902F
:1019F000CF90BF90AF909F908F907F906F905F90AF
:101A00004F903F902F9008950F931F938C010E9449
:101A10003908682FC8010E946D07C8016BE271E0A8
:101A20004AE022E00E94470CC8016EE171E04CE000
:101A300024E00E945D0BC80166E171E040E121E015
:101A40000E94470CC8016BE071E041E126E00E9472
:101A50005D0BC80165E071E041E021E00E945D0B93
:101A6000C8016BEF70E042E021E00E945D0BC8010D
:101A700065EF70E045E021E00E945D0BC8016CEE6F
:101A800070E046E021E00E945D0BC80165EE70E069
:101A900040E021E00E945D0BC80167ED70E04CE181
:101AA00022E00E945D0BC8010E94B409FC01EE0F08
:101AB000FF1FE658FF4F2591349100D000D085ECF0
:101AC00090E0EDB7FEB792838183348323830E9435
:101AD0003102F8018281E82FF0E0EE0FFF1FE0589D
:101AE000FF4F2591349186EB90E0EDB7FEB79283DE
:101AF0008183348323830E9431020F900F900F90D3
:101B00000F90C8010E947909FC01EE0FFF1FEC57EE
:101B1000FF4F2591349100D000D083EA90E0EDB7DB
:101B2000FEB792838183348323830E9431020F9016
:101B30000F900F900F90C8010E94F009E82FF0E07D
:101B4000EE0FFF1FE657FF4F2591349100D000D0D4
:101B500082E990E0EDB7FEB79283818334832383DB
:101B60000E9431020F900F900F900F901F910F91D4
:101B70000895DF92EF92FF920F931F93CF93DF931D
:101B8000F82E092FEB010E949E10181619060CF072
:101B900046C08F2D902F0E947D10823009F03FC0EB
:101BA000DD24EE2410E08F2D902F0E949E10181639
:101BB0001906CCF78F2D902F0E947D10282F8D3085
:101BC00071F18A3061F1833051F1823041F18053FB
:101BD0008A3010F4282F05C0822F8154863008F4F3
:101BE0002753812F90E010FD02C0D22E0DC0959595
:101BF00087953D2D3295307F322BFE01E80FF91F7E
:101C00003083059709F0E3261F5F1C3060F21C301B
:101C100031F490E08D818E1519F491E001C090E0CF
:101C2000892FDF91CF911F910F91FF90EF90DF905F
:101C30000895CF92DF92EF92FF920F931F93DF935D
:101C4000CF93CDB7DEB76C970FB6F894DEBF0FBE5B
:101C5000CDBF8C01F62EE42E20E00E94ED116E0126
:101C60000894C11CD11CC6016F2D4E2D20E00E948E
:101C7000ED118B819C81F801938382838D819E81FC
:101C8000AF81B88584839583A683B78389859A8538
:101C9000AB85BC8580879187A287B3878D85848734
:101CA0008E8585878F859889978786878989808B98
:101CB0008A899B89928B818B8C899D89948B838B5C
:101CC0008E899F89968B858B888D998D908F878B38
:101CD0008A8D9B8D928F818F9C8D838D8C7F292FF8
:101CE00022709170892B822B838FC6010E94741001
:101CF000C80140E855E260E070E00E94820F6C96F7
:101D00000FB6F894DEBF0FBECDBFCF91DF911F910C
:101D10000F91FF90EF90DF90CF900895882319F4F2
:101D20008CB5806202C08CB58F7D8CBD08959CB54A
:101D3000937F982B9CBD08952CB5382F33702C7F42
:101D4000322B3CBD2DB590E095958795959587955F
:101D500081702E7F822B8DBD08958AE061E00E9404
:101D6000D9138AE061E00E949A138CB580618CBD22
:101D70008CB580648CBD8DE061E00E949A138BE08D
:101D800061E00E949A1308950F931F93CF93DF93FE
:101D9000FC01738D76957170A685B785958577233F
:101DA00029F08C91892309F454C004C08C918923B3
:101DB00009F04FC08389948920E001972FEF8F3F6E
:101DC0009207D9F7C589D689A685B785158560E0BC
:101DD00031E040E050E000E0CE01202F01972FEFEE
:101DE0008F3F9207D9F78C91812311F0632B03C0A9
:101DF000832F80956823330F4F5F5F4F4830510525
:101E000059F78789908D20E001972FEF8F3F920738
:101E1000D9F771116095809168022091690290E074
:101E200001968F73907030E08217930779F0E091FC
:101E30006802F0E0E85DFD4F60838091680290E009
:101E400001968F7390708093680203C0838D8160C8
:101E5000838FDF91CF911F910F9108951F920F9261
:101E60000FB60F9211242F933F934F935F936F936D
:101E70007F938F939F93AF93BF93EF93FF93809143
:101E8000260290912702009711F00E94C40EFF9144
:101E9000EF91BF91AF919F918F917F916F915F91E2
:101EA0004F913F912F910F900FBE0F901F9018955B
:101EB0001F920F920FB60F9211242F933F934F93BF
:101EC0005F936F937F938F939F93AF93BF93EF93A2
:101ED000FF938091260290912702009711F00E94B3
:101EE000C40EFF91EF91BF91AF919F918F917F9120
:101EF0006F915F914F913F912F910F900FBE0F9077
:101F00001F901895CF92DF92EF92FF920F931F933D
:101F1000CF93DF93EC017A018B011A8E198E188E04
:101F20001F8A1E8A1D8A1C8A1B8A20E030E06901F4
:101F3000CC0CDD1CC20ED31EB601660F771F660FD8
:101F4000771FAB01455D5D4FFA0185919591A59194
:101F5000B4918E159F05A007B107E9F4FB01E15D7F
:101F6000FD4F859194919C8B8B8BFB01EF5CFD4F1A
:101F7000859194919E8B8D8BFB01ED5CFD4F85913E
:101F80009491988F8F8BFB01EB5CFD4F8591949121
:101F90009A8F898F06C02F5F3F4F2D30310509F092
:101FA000C6CF8F89988D892B09F449C04C8546315D
:101FB00008F03DC090916800483010F484E005C0FE
:101FC0004E3010F082E001C081E0892B80936800E0
:101FD000483028F4EDE6F0E0ADE6B0E00BC04E305E
:101FE00028F0ECE6F0E0ACE6B0E004C0EBE6F0E0B0
:101FF000ABE6B0E05081483040F481E090E002C0B0
:10200000880F991F4A95E2F710C0242F30E04E3018
:1020100018F42850304002C02E50304081E090E04B
:1020200002C0880F991F2A95E2F7852B8C93898D22
:102030009A8D20E001972FEF8F3F9207D9F780917B
:102040002602909127028C179D0781F08B8D8E7F41
:102050008B8F9FB7F89410926802809168028093EA
:102060006902D0932702C09326029FBFDF91CF91D0
:102070001F910F91FF90EF90DF90CF900895FC019A
:102080004485463180F5483028F4EDE6F0E0ADE6D1
:10209000B0E00BC04E3028F4EBE6F0E0ABE6B0E089
:1020A00004C0ECE6F0E0ACE6B0E05081483040F42B
:1020B00081E090E002C0880F991F4A95E2F710C0B6
:1020C000242F30E04E3018F42850304002C02E50FB
:1020D000304081E090E002C0880F991F2A95E2F716
:1020E000809585238C930895FC0184EC91E0918385
:1020F0008083CF010E943F100895209126023091E5
:1021000027022817390731F49091690280916802FB
:10211000981719F42FEF3FEF0FC0E0916902F0E03C
:10212000E85DFD4F20818091690290E001968F73F8
:1021300090708093690230E0C901089520912602D1
:10214000309127022817390719F020E030E00EC03F
:10215000809168022091690290E0805C9F4F821B11
:10216000910960E470E00E94FF179C01C901089585
:102170000F931F93DC0159968D919C915A97892B4F
:1021800049F481E090E013969C938E93129720E09F
:1021900030E097C00FB7F8945B968C915B9751969F
:1021A000ED91FC91529750962C91509781FF8DC0E4
:1021B0008081822B808359968D919C915A970596A8
:1021C00020E001972FEF8F3F9207D9F75B968C9114
:1021D0005B9781FF35C031E040E050E070E010E0F7
:1021E000832F90E0862397235196ED91FC9152978F
:1021F00050962C915097892B29F080812095282387
:10220000208303C08081822B808359968D919C917D
:102210005A97212F01972FEF8F3F9207D9F7330F4E
:102220004F5F5F4F48305105D9F65196ED91FC91C3
:102230005297908150968C9150978095892333C006
:1022400031E040E050E070E010E0832F90E0862322
:1022500097235196ED91FC91529750962C9150975F
:10226000892B21F08081822B808304C0808120957E
:102270002823208359968D919C915A97212F01975D
:102280002FEF8F3F9207D9F7330F4F5F5F4F4830E3
:102290005105D9F65196ED91FC9152978081509657
:1022A0009C915097892B80830FBF59968D919C915B
:1022B0005A9720E001972FEF8F3F9207D9F721E03F
:1022C00030E0C9011F910F91089580812095282346
:1022D000208371CF209126023091270228173907D9
:1022E00049F49FB7F8941092680280916802809335
:1022F00069029FBF08952091260230912702281776
:10230000390731F49091690280916802981719F4A5
:102310002FEF3FEF0AC0E0916902F0E0E85DFD4F6A
:102320008081282F332727FD3095C90108951F93F9
:10233000CF93DF93EC01162F862F60E00E949A1353
:102340008B8D81FD04C0812F61E00E94D9131C8711
:10235000212F30E0C90187509D4FFC0184918D876A
:102360002B513D4FF9016491E62FF0E0EE0FFF1F76
:10237000E552FD4F859194919F878E87DF91CF9194
:102380001F910895FF920F931F938C01F62E862FB5
:1023900061E00E949A138F2D61E00E94D9138F2D66
:1023A00090E0FC01E750FD4FE491D8015096EC938A
:1023B00050978B519D4FFC016491E62FF0E0EE0F9A
:1023C000FF1FEF52FD4F8591949152969C938E93EF
:1023D00051971F910F91FF900895FF920F931F93B4
:1023E0008C01F62EFC011382128288EE93E0A0E0AD
:1023F000B0E084839583A683B78384EC91E09183D6
:102400008083148A138A168A158A108E178A128E70
:10241000118E838D2170220F8C7F822B838FC801B8
:10242000642F0E94C211C8016F2D0E9497111F9145
:102430000F91FF900895823000F5E82FF0E0EE0F45
:10244000FF1FE659FD4F71836083882319F08130A7
:10245000A1F408C0809169008C7F842B809369006F
:10246000E89A089580916900440F551F440F551F45
:10247000837F842B80936900E99A08951F920F92BD
:102480000FB60F9211242F933F934F935F936F9347
:102490007F938F939F93AF93BF93EF93FF9380911D
:1024A0006A0290916B02892B29F0E0916A02F09107
:1024B0006B020995FF91EF91BF91AF919F918F9121
:1024C0007F916F915F914F913F912F910F900FBE30
:1024D0000F901F9018951F920F920FB60F92112414
:1024E0002F933F934F935F936F937F938F939F931C
:1024F000AF93BF93EF93FF9380916C0290916D0225
:10250000892B29F0E0916C02F0916D020995FF9101
:10251000EF91BF91AF919F918F917F916F915F915B
:102520004F913F912F910F900FBE0F901F901895D4
:102530001F920F920FB60F9211242F933F938F93F8
:102540009F93AF93BF938091720290917302A09179
:102550007402B0917502309176020196A11DB11DF1
:10256000232F2D5F2D3720F02D570196A11DB11D72
:10257000209376028093720290937302A093740268
:10258000B093750280916E0290916F02A0917002DB
:10259000B09171020196A11DB11D80936E029093BE
:1025A0006F02A0937002B0937102BF91AF919F919F
:1025B0008F913F912F910F900FBE0F901F90189504
:1025C0009FB7F89420916E0230916F024091700293
:1025D0005091710286B5A89B06C08F3F21F02F5FF6
:1025E0003F4F4F4F5F4F9FBF542F432F322F222714
:1025F000280F311D411D511D82E0220F331F441F42
:10260000551F8A95D1F7B901CA0108959B01AC0104
:102610007FB7F89480916E0290916F02A091700242
:10262000B091710266B5A89B05C06F3F19F0019685
:10263000A11DB11D7FBFBA2FA92F982F8827860F04
:10264000911DA11DB11D62E0880F991FAA1FBB1F1C
:102650006A95D1F7BC012DC0FFB7F89480916E0246
:1026600090916F02A0917002B0917102E6B5A89BA3
:1026700005C0EF3F19F00196A11DB11DFFBFBA2F94
:10268000A92F982F88278E0F911DA11DB11DE2E063
:10269000880F991FAA1FBB1FEA95D1F7861B970BBE
:1026A000885E9340C8F2215030404040504068510D
:1026B0007C4F211531054105510571F60895789437
:1026C00084B5826084BD84B5816084BD85B5826037
:1026D00085BD85B5816085BDEEE6F0E080818160D5
:1026E0008083E1E8F0E010828081826080838081D5
:1026F00081608083E0E8F0E0808181608083E1EBAD
:10270000F0E0808184608083E0EBF0E08081816094
:102710008083EAE7F0E0808184608083808182604A
:102720008083808181608083808180688083109233
:10273000C1000895CF93DF93482F50E0CA0187501E
:102740009D4FFC0134914B515D4FFA0184918823D8
:1027500069F190E0880F991FFC01E953FD4FA591A5
:10276000B491FC01EF52FD4FC591D491662351F411
:102770002FB7F8948C91932F909589238C9388810F
:1027800089230BC0623061F42FB7F8948C91932F9A
:10279000909589238C938881832B88832FBF06C0D3
:1027A0009FB7F8948C91832B8C939FBFDF91CF912F
:1027B0000895482F50E0CA01835F9C4FFC0124918B
:1027C000CA0187509D4FFC0194914B515D4FFA0116
:1027D0003491332309F440C0222351F1233071F0A6
:1027E000243028F42130A1F0223011F514C0263015
:1027F000B1F02730C1F02430D9F404C080918000BA
:102800008F7703C0809180008F7D8093800010C0FF
:1028100084B58F7702C084B58F7D84BD09C0809157
:10282000B0008F7703C08091B0008F7D8093B0009F
:10283000E32FF0E0EE0FFF1FEF52FD4FA591B49193
:102840002FB7F894662321F48C919095892302C0C8
:102850008C91892B8C932FBF0895682F70E0CB014A
:10286000835F9C4FFC012491CB0187509D4FFC015D
:1028700044916B517D4FFB019491992319F420E011
:1028800030E03CC0222351F1233071F0243028F491
:102890002130A1F0223011F514C02630B1F02730DC
:1028A000C1F02430D9F404C0809180008F7703C038
:1028B000809180008F7D8093800010C084B58F77D9
:1028C00002C084B58F7D84BD09C08091B0008F7730
:1028D00003C08091B0008F7D8093B000892F90E07D
:1028E000880F991F85529D4FFC01A591B4918C9141
:1028F00020E030E0842311F021E030E0C9010895A8
:1029000008951F920F920FB60F9211242F933F93A9
:102910004F938F939F93EF93FF938091C00082FD1D
:102920001DC04091C6002091B7023091B8022F5FC0
:102930003F4F2F7330708091B9029091BA022817DF
:10294000390771F0E091B702F091B802E958FD4FF4
:1029500040833093B8022093B70202C08091C60032
:10296000FF91EF919F918F914F913F912F910F90F8
:102970000FBE0F901F901895E0910B03F0910C0380
:10298000E05CFF4F8191919120813181821B930BFB
:102990008F739070892B11F00E94801408951F92FC
:1029A0000F920FB60F9211242F933F938F939F9303
:1029B000EF93FF932091FB023091FC028091FD0286
:1029C0009091FE022817390731F48091C1008F7D64
:1029D0008093C10014C0E091FD02F091FE02E55425
:1029E000FD4F20818091FD029091FE0201968F7330
:1029F00090709093FE028093FD022093C600FF9199
:102A0000EF919F918F913F912F910F900FBE0F905B
:102A10001F901895AF92BF92DF92EF92FF920F93A3
:102A20001F93CF93DF93EC017A018B01DD244030BB
:102A300081EE580780E0680780E0780711F0DD2418
:102A4000D39491E0A92EB12CEC89FD89DD2069F0A9
:102A5000C50108A002C0880F991F0A94E2F780837D
:102A600060E079E08DE390E005C0108260E874E8F2
:102A70008EE190E0A80197010E9412182150304089
:102A800040405040569547953795279580E1203036
:102A9000380720F0DD2011F0DD24D6CFE889F98950
:102AA0003083EA89FB89208319A2EE89FF8940815E
:102AB00021E030E0C9010C8C02C0880F991F0A94F4
:102AC000E2F7482B4083EE89FF894081C9010D8CD4
:102AD00002C0880F991F0A94E2F7482B4083EE89C1
:102AE000FF894081C9010E8C02C0880F991F0A948A
:102AF000E2F7482B4083EE89FF8980810F8C02C06A
:102B0000220F331F0A94E2F7209528232083DF91B8
:102B1000CF911F910F91FF90EF90DF90BF90AF90FA
:102B20000895DC011C96ED91FC911D97E05CFF4F30
:102B30002191319180819181281B390B2F73307045
:102B4000C9010895DC011C96ED91FC911D97E05C94
:102B5000FF4F20813181E054F040DF01AE5BBF4F79
:102B60008D919C9111972817390719F42FEF3FEF9A
:102B700007C08D919C91E80FF91F8081282F30E0CC
:102B8000C9010895DC011C96ED91FC911D97E05C54
:102B9000FF4F20813181E054F040DF01AE5BBF4F39
:102BA0008D919C9111972817390719F42FEF3FEF5A
:102BB00010C08D919C911197E80FF91F20818D9184
:102BC0009C91119701968F73907011969C938E93A0
:102BD00030E0C9010895DC0191968C91919788238A
:102BE00039F05496ED91FC915597808186FFF9CF8D
:102BF00091961C920895CF93DF93EC01EE85FF85AB
:102C0000E05CFF4F20813181E054F0402F5F3F4F67
:102C10002F733070DF01AE5BBF4F8D919C91119788
:102C200028173907D1F3E05CFF4F80819181E05490
:102C3000F040E80FF91F6083EE85FF85E05CFF4FF1
:102C400031832083EE89FF89208181E090E00F8C21
:102C500002C0880F991F0A94E2F7282B208381E095
:102C600089A3EC89FD8980818064808381E090E084
:102C7000DF91CF910895109202031092010388EE24
:102C800093E0A0E0B0E08093030390930403A0934B
:102C90000503B093060384ED91E0909300038093C5
:102CA000FF0287E792E090930C0380930B038BEB7A
:102CB00092E090930E0380930D0385EC90E0909347
:102CC000100380930F0384EC90E0909312038093A1
:102CD000110380EC90E0909314038093130381EC34
:102CE00090E0909316038093150382EC90E090930C
:102CF00018038093170386EC90E090931A03809357
:102D0000190384E080931B0383E080931C0387E016
:102D100080931D0385E080931E0381E080931F0351
:102D20000895CF93DF930E945F130E948606CCEB39
:102D3000D4E10E945E062097E1F30E94BC14F9CF13
:102D4000CF92DF92EF92FF920F931F93CF93DF9377
:102D50007C016B018A01C0E0D0E00FC0D6016D910B
:102D60006D01D701ED91FC910190F081E02DC7013B
:102D70000995C80FD91F015010400115110571F7B1
:102D8000CE01DF91CF911F910F91FF90EF90DF90D7
:102D9000CF9008950F931F93CF93DF93BC018230A0
:102DA000910510F462E070E0E0912303F0912403B8
:102DB000A0E0B0E040E050E024C08081918186171F
:102DC0009707D0F08617970771F482819381109747
:102DD00029F013969C938E9312972CC09093240302
:102DE0008093230327C04115510519F084179507D7
:102DF00018F4EF018D01AC01DF01828193819C0108
:102E0000F9013097D1F641155105F9F0CA01861B39
:102E1000970B8430910580F48A819B8101151105FF
:102E200021F0F8019383828304C09093240380935C
:102E30002303FE01329645C0FE01E80FF91F61939E
:102E400071930297998388833CC08091210390916C
:102E50002203892B41F48091BC019091BD01909394
:102E60002203809321034091BE015091BF0141157F
:102E7000510541F44DB75EB78091BA019091BB0105
:102E8000481B590B20912103309122032417350749
:102E9000B0F4CA01821B930B8617970780F0AB0131
:102EA0004E5F5F4F8417950750F0420F531F5093AA
:102EB000220340932103F9016193719302C0E0E082
:102EC000F0E0CF01DF91CF911F910F910895CF9343
:102ED000DF939C01009709F48FC0EC0122971B82BD
:102EE0001A8260912303709124036115710581F4A6
:102EF00088819981820F931F2091210330912203B1
:102F00002817390739F5D0932203C093210374C0E1
:102F1000DB0140E050E0AC17BD0708F1BB83AA839A
:102F2000FE0121913191E20FF31FAE17BF0779F433
:102F30008D919C911197280F391F2E5F3F4F398338
:102F4000288312968D919C9113979B838A834115B8
:102F5000510571F4D0932403C09323034DC01296FE
:102F60008D919C911397AD01009711F0DC01D3CFA7
:102F7000DA011396DC93CE931297FA0121913191E5
:102F8000E20FF31FCE17DF0769F488819981280FBC
:102F9000391F2E5F3F4FFA01318320838A819B8145
:102FA00093838283E0E0F0E0DB0112968D919C91A7
:102FB0001397009719F0BC01FD01F6CFAB014E5FEE
:102FC0005F4FDB018D919C91840F951F2091210310
:102FD000309122032817390779F4309729F4109299
:102FE00024031092230302C01382128242505040E5
:102FF0005093220340932103DF91CF91089597FBD3
:10300000092E07260AD077FD04D02ED006D0002046
:103010001AF4709561957F4F0895F6F79095819514
:103020009F4F0895A1E21A2EAA1BBB1BFD010DC0E4
:10303000AA1FBB1FEE1FFF1FA217B307E407F50768
:1030400020F0A21BB30BE40BF50B661F771F881F44
:10305000991F1A9469F760957095809590959B01DA
:10306000AC01BD01CF010895AA1BBB1B51E107C0F4
:10307000AA1FBB1FA617B70710F0A61BB70B881F08
:10308000991F5A95A9F780959095BC01CD01089597
:10309000EE0FFF1F0590F491E02D09942F923F92BF
:1030A0004F925F926F927F928F929F92AF92BF9258
:1030B000CF92DF92EF92FF920F931F93CF93DF9304
:1030C000CDB7DEB7CA1BDB0B0FB6F894DEBF0FBE61
:1030D000CDBF09942A88398848885F846E847D84AE
:1030E0008C849B84AA84B984C884DF80EE80FD80B0
:1030F0000C811B81AA81B981CE0FD11D0FB6F89426
:10310000DEBF0FBECDBFED01089513E0C6E2D3E0F0
:1031100004C0FE010E944A182296C832D107C9F79E
:04312000F894FFCF51
:1031240053656E643A4F4B0A0D0041636B20506146
:10313400796C6F61643A53656E740A0D0053656E61
:10314400643A4661696C65640A0D0041636B205002
:1031540061796C6F61643A4661696C65640A0D005B
:1031640041636B3A256C750A0D00476F74207061DA
:10317400796C6F616420256C750A0D0052464944D0
:103184002052656365697665643A002578000A0D06
:10319400000A0D524632342F6578616D706C657388
:1031A4002F70696E67706169725F6972712F0A0DA1
:1031B40000524F4C453A2025730A0D00696E766122
:1031C4006C69640053656E64657200526563656979
:1031D400766572009C01A401AB0180002B03000002
:1031E40000000000B810A0169E107D107B116A111B
:1031F40000000000FB15A0169115C215A215EB15D1
:00000001FF
