:100000000C9494010C94E60E0C94130F0C94750749
:100010000C94BC010C949F070C94BC010C94BC0183
:100020000C94BC010C94BC010C94BC010C94BC015C
:100030000C94BC010C94BC010C94BC010C94BC014C
:100040000C94400F0C94BC010C9437110C94851146
:100050000C94BC010C94BC010C94BC010C94BC012C
:100060000C94BC010C94BC0100C201000100110001
:1000700011000C0000E100000A002500250021000D
:10008000009600001900390039003600127A00008D
:100090001F004600460044008070000022004D0012
:1000A0004D004A00004B00003600750075007200DC
:1000B000403800004A009C009C0099008025000008
:1000C0007200EC00EC00E900C0120000E900DA0167
:1000D000DA01D70160090000D701B603B603B30304
:1000E000B0040000B3036E076E076B0758020000F0
:1000F0006E07DC0EDC0ED80E2C010000DC0EC11DDC
:10010000C11DBE1D0001020304050A0B0C0D0E0FDC
:100110001112131415166B02710277027F02880206
:1001200092029B02A202AA02B102B802C00250418E
:1001300020506F77657209203D2025530D0A00433A
:100140005243204C656E67746809203D2025530D8D
:100150000A004D6F64656C0909203D2025530D0A86
:100160000044617461205261746509203D2025536B
:100170000D0A0044594E50442F46454154555245AE
:1001800000434F4E4649470052465F534554555031
:100190000052465F434800454E5F52584144445226
:1001A00000454E5F41410052585F50575F50302D1F
:1001B000360054585F414444520052585F41444411
:1001C000525F50322D350052585F414444525F50C7
:1001D000302D31000D0A00253032780020307800B3
:1001E0002553092563203D000D0A00203078253075
:1001F0003278002553092563203D004F4253455274
:1002000056455F54583D253032783A20504F4C5374
:100210005F434E543D2578204152435F434E543D49
:1002200025780D0A005354415455530909203D20A7
:100230003078253032782052585F44523D2578205E
:1002400054585F44533D2578204D41585F52543DEA
:1002500025782052585F505F4E4F3D2578205458E6
:100260005F46554C4C3D25780D0A00314D425053A8
:1002700000324D425053003235304B425053006EE5
:10028000524632344C3031006E524632344C3031AA
:100290002B0044697361626C656400382062697484
:1002A0007300313620626974730050415F4D494ECE
:1002B0000050415F4C4F570050415F48494748004C
:1002C00050415F4D41580000000000240027002AE3
:1002D0000000000000250028002B00000000002383
:1002E0000026002900040404040404040402020299
:1002F0000202020303030303030102040810204067
:1003000080010204081020010204081020000000EF
:1003100007000201000003040600000000000000C6
:100320000000ED04F112E60411241FBECFEFD8E067
:10033000DEBFCDBF11E0A0E0B1E0E0E9FAE202C02B
:1003400005900D92A63CB107D9F713E0A6ECB1E0F9
:1003500001C01D92A530B107E1F713E0C6E2D3E07A
:1003600004C02297FE010E940015C232D107C9F7CE
:100370000E9447130C943B150C940000FB01DC0118
:1003800002C001900D9241505040D8F708950F934C
:100390001F93CF93DF938C01EB01009731F461152C
:1003A000710519F420E030E038C081E090E06EE0A3
:1003B00070E00E940504FC019C01009771F180E847
:1003C0008383209771F0D387C28781E883838091EC
:1003D000FF0290910003892B21F4F0930003E09336
:1003E000FF0201151105C9F0118700878381826022
:1003F00083838091010390910203892B71F4F09320
:100400000203E09301038091030390910403892B7D
:1004100021F4F0930403E0930303C901DF91CF912A
:100420001F910F910895A0E0B0E0E9E1F2E00C9493
:100430001415FE013596619171918091010390919F
:100440000203AF010E9428022096E2E00C943015CE
:10045000ABE0B0E0EEE2F2E00C9404153C012B01BD
:100460005A01FC0117821682838181FD03C06FEF60
:100470007FEFC6C19AE0892E1E010894211C311C11
:10048000F3012381F20123FD859123FF81912F0147
:10049000882309F4B2C1853239F423FD859123FF05
:1004A00081912F01853229F490E0B3010E943E042E
:1004B000E7CF982FFF24EE249924FFE1FF15D0F019
:1004C0009B3269F09C3228F4903259F0933291F4C7
:1004D0000EC09D3249F0903369F441E024C052E0EF
:1004E000F52A84E0F82A28C098E0F92A25C0E0E13E
:1004F000FE2A22C0F7FC29C0892F80538A3070F46D
:10050000F6FE05C0989C902C1124980E15C0E89C0E
:10051000E02C1124E80EF0E2FF2A0EC09E3229F4EE
:10052000F6FC6BC140E4F42A07C09C3619F450E88D
:10053000F52A02C0983649F4F20123FD959123FF74
:1005400091912F01992309F0B8CF892F85548330D9
:1005500018F08052833038F444E050E0A40EB51E09
:100560005FE359830FC0933631F0933779F09335B9
:1005700009F056C020C0F5018081898342E050E037
:10058000A40EB51E610101E010E012C0F501C080AB
:10059000D180F6FC03C06FEF7FEF02C0692D70E0E1
:1005A00042E050E0A40EB51EC6010E9433048C0147
:1005B0005FE7F52214C0F501C080D180F6FC03C0CE
:1005C0006FEF7FEF02C0692D70E042E050E0A40EB3
:1005D000B51EC6010E9421048C0150E8F52AF3FEE5
:1005E00007C01AC080E290E0B3010E943E04EA9482
:1005F0008E2D90E008171907A8F30EC0F601F7FC3E
:100600008591F7FE81916F0190E0B3010E943E0455
:10061000E110EA94015010400115110579F7EAC084
:10062000943611F0993669F5F7FE08C0F50120817E
:1006300031814281538184E090E00AC0F5018081DC
:1006400091819C01442737FD4095542F82E090E032
:10065000A80EB91E9FE6F92257FF09C05095409594
:10066000309521953F4F4F4F5F4FE0E8FE2ACA017A
:10067000B901A1012AE030E00E946A04D82ED21804
:1006800040C0953729F41F2D1F7E2AE030E01DC0A1
:100690001F2D197F9F3661F0903720F4983509F0AF
:1006A000ACC00FC0903739F0983709F0A6C004C02D
:1006B00028E030E00AC0106114FD146020E130E051
:1006C00004C014FD166020E132E017FF08C0F501F8
:1006D000608171818281938144E050E008C0F5011E
:1006E00080819181BC0180E090E042E050E0A40E66
:1006F000B51EA1010E946A04D82ED2188FE7F82EE9
:10070000F122F6FE0BC05EEFF522D91438F4F4FEA8
:1007100007C0F2FC05C08FEEF82202C01D2D01C0FB
:10072000192DF4FE0DC0FE01ED0DF11D8081803309
:1007300019F499EEF92208C01F5FF2FE05C003C04C
:100740008F2D867809F01F5F0F2DF3FC14C0F0FE8B
:100750000FC01E1510F09D2C0BC09D2C9E0C911AE5
:100760001E2D06C080E290E0B3010E943E041F5F90
:100770001E15C0F304C01E1510F4E11A01C0EE24CA
:1007800004FF0FC080E390E0B3010E943E0402FF2B
:100790001DC001FD03C088E790E00EC088E590E031
:1007A0000BC0802F867891F001FF02C08BE201C060
:1007B00080E2F7FC8DE290E0B3010E943E0406C0A7
:1007C00080E390E0B3010E943E049A94D914C0F3F0
:1007D000DA94F101ED0DF11D808190E0B3010E94EA
:1007E0003E04DD20A9F706C080E290E0B3010E943C
:1007F0003E04EA94EE20C1F743CEF301668177818F
:10080000CB012B96E2E10C9420150F931F93CF930D
:10081000DF93689F8001699F100D789F100D112450
:10082000C8010E948013EC01009729F060E070E09D
:10083000A8010E942C04CE01DF91CF911F910F914E
:100840000895FC010590615070400110D8F7809523
:1008500090958E0F9F1F0895DC0101C06D9341504C
:100860005040E0F70895FC01615070400190011084
:10087000D8F7809590958E0F9F1F08950F931F9323
:10088000CF93DF938C01EB018B8181FF1BC082FF33
:100890000DC02E813F818C819D812817390764F41A
:1008A000E881F9810193F983E88306C0E885F98539
:1008B000802F0995892B31F48E819F8101969F832A
:1008C0008E8302C00FEF1FEFC801DF91CF911F9100
:1008D0000F910895FA01AA27283051F1203181F1B2
:1008E000E8946F936E7F6E5F7F4F8F4F9F4FAF4F38
:1008F000B1E03ED0B4E03CD0670F781F891F9A1F4B
:10090000A11D680F791F8A1F911DA11D6A0F711DFE
:10091000811D911DA11D20D009F468943F912AE00A
:10092000269F11243019305D3193DEF6CF010895F2
:10093000462F4770405D4193B3E00FD0C9F7F6CF23
:10094000462F4F70405D4A3318F0495D31FD4052EB
:10095000419302D0A9F7EACFB4E0A6959795879581
:1009600077956795BA95C9F7009761057105089560
:100970009B01AC010A2E069457954795379527950C
:10098000BA95C9F7620F731F841F951FA01D0895A4
:100990008130910589F46F5F7F4FB9F486EC91E067
:1009A00069E04AE00E94620A87ED91E063E044E07A
:1009B00020E00E94340A0895892B39F46F5F7F4F3D
:1009C00021F487ED91E00E94BB08089580E090E05B
:1009D0006FEF7FEF0E94C804089581E090E06FEF11
:1009E0007FEF0E94C80408950F931F93CF93DF9366
:1009F00000D080E091E0ADB7BEB712969C938E9385
:100A000011970E941302C3EFD1E00F900F900FE0F7
:100A100011E000D000D0EDB7FEB73196ADB7BEB74C
:100A200012961C930E9311978991828313820E94D0
:100A300013020F900F900F900F90B1E0C93FDB07AA
:100A400041F700D084E191E0EDB7FEB79283818356
:100A50000E9413020F900F90DF91CF911F910F9181
:100A60000895DF93CF9300D00F92CDB7DEB786EC19
:100A700091E0BE016F5F7F4FAE014E5F5F4F9E0101
:100A80002D5F3F4F0E94C40B8A81882311F1809112
:100A9000F9019091FA01019759F400D087E191E0B2
:100AA000EDB7FEB7928381830E9413020F900F90DF
:100AB0008091F9019091FA01029759F400D085E2F2
:100AC00091E0EDB7FEB7928381830E9413020F90ED
:100AD0000F908B81882339F486EC91E00E94DF0D22
:100AE000882309F457C08091F9019091FA01019788
:100AF00031F586EC91E06CEF71E044E00E94F20B7E
:100B000000D000D000D08AE391E0EDB7FEB7928329
:100B100081838091FC019091FD01A091FE01B09133
:100B2000FF0183839483A583B6830E9413028DB74C
:100B30009EB706960FB6F8949EBF0FBE8DBF8091EC
:100B4000F9019091FA01029729F581E08093FB0168
:100B500086EC91E063EF71E046E00E94F20B86ECD8
:100B600091E061E04CEF51E024E00E948C0A80911A
:100B7000FC019091FD01A091FE01B091FF01019651
:100B8000A11DB11D8093FC019093FD01A093FE0176
:100B9000B093FF010F900F900F90CF91DF910895C8
:100BA000DF93CF9300D000D0CDB7DEB78091F901AD
:100BB0009091FA01019761F50E94880F69837A8309
:100BC0008B839C8300D000D000D024E431E0EDB7CB
:100BD000FEB73283218363837483858396830E9467
:100BE00013028DB79EB706960FB6F8949EBF0FBE40
:100BF0008DBF86EC91E0BE016F5F7F4F44E020E047
:100C00000E94840B60ED77E080E090E00E94BC0FD2
:100C10008091F9019091FA010297C1F48091FB0152
:100C20008823A1F08091F301882381F00E94F404CD
:100C30001092F3011092F4011092F5011092F60156
:100C40001092F7011092F8011092FB010F900F9093
:100C50000F900F90CF91DF9108958CEF96E060E0B8
:100C600070E00E94C7010895EF92FF920F931F93C7
:100C700085E060E00E94501085E061E00E948F10E6
:100C800064E170E080E090E00E94BC0F85E00E948B
:100C9000E310892B19F081E090E002C082E090E03F
:100CA0009093FA018093F90189ED92E040E855E2D2
:100CB00060E070E00E94C01187ED91E042E15AE7E8
:100CC00060E070E00E94C9070E942D0600D086E512
:100CD00091E0EDB7FEB7928381830E94130200D0AA
:100CE00086E791E0EDB7FEB792838183E091F90149
:100CF000F091FA01EE0FFF1FE756FE4F80819181C0
:100D0000EDB7FEB7948383830E9413020F900F9078
:100D10000F900F9086EC91E00E94330E86EC91E0EC
:100D200063E00E94CF0C86EC91E062E070E00E94EC
:100D3000A40C86EC91E061E070E00E94890C86ECE6
:100D400091E06FE04FE00E94BA0B86EC91E00E94C8
:100D5000E80C8091F9019091FA010197E1F486EC99
:100D600091E001E71DEC2BEA3DEC4BEA50E060E03E
:100D700070E00E94320C86EC91E061E05CE7E52EC9
:100D800048E6F42E02E51DE424E530E040E050E0C2
:100D90000E94250D1FC086EC91E00CE718E622E5C5
:100DA0003DE444E550E060E070E00E94320C86ECE7
:100DB00091E061E031E7E32E2DECF22E0BEA1DEC21
:100DC0002BEA30E040E050E00E94250D86EC91E0F7
:100DD0000E94FF0D62E370E080E090E00E94BC0F93
:100DE00080E061E375E042E050E00E94C30E1F9195
:100DF0000F91FF90EF9008950F931F93082F1127E5
:100E000007FD109589ED92E0602F0E94B112C80194
:100E10001F910F9108950F931F93CF93DF93FC01C0
:100E2000738D76957170A685B7859585772329F0A2
:100E30008C91892309F454C004C08C91892309F052
:100E40004FC08389948920E001972FEF8F3F92074D
:100E5000D9F7C589D689A685B785158560E031E0C3
:100E600040E050E000E0CE01202F01972FEF8F3FB0
:100E70009207D9F78C91812311F0632B03C0832F44
:100E800080956823330F4F5F5F4F4830510559F706
:100E90008789908D20E001972FEF8F3F9207D9F738
:100EA00071116095809142022091430290E0019679
:100EB0008F73907030E08217930779F0E0914202CF
:100EC000F0E0EE5FFD4F60838091420290E001967A
:100ED0008F7390708093420203C0838D8160838FF3
:100EE000DF91CF911F910F9108951F920F920FB62E
:100EF0000F9211242F933F934F935F936F937F93A0
:100F00008F939F93AF93BF93EF93FF9380910002D2
:100F100090910102009711F00E940B07FF91EF9151
:100F2000BF91AF919F918F917F916F915F914F9101
:100F30003F912F910F900FBE0F901F9018951F9209
:100F40000F920FB60F9211242F933F934F935F93FD
:100F50006F937F938F939F93AF93BF93EF93FF9381
:100F60008091000290910102009711F00E940B07FE
:100F7000FF91EF91BF91AF919F918F917F916F9171
:100F80005F914F913F912F910F900FBE0F901F9047
:100F90001895CF92DF92EF92FF920F931F93CF930A
:100FA000DF93EC017A018B011A8E198E188E1F8A3D
:100FB0001E8A1D8A1C8A1B8A20E030E06901CC0C45
:100FC000DD1CC20ED31EB601660F771F660F771F9A
:100FD000AB0148595F4FFA0185919591A591B49164
:100FE0008E159F05A007B107E9F4FB01E459FF4FF7
:100FF000859194919C8B8B8BFB01E259FF4F8591DE
:1010000094919E8B8D8BFB01E059FF4F85919491BC
:10101000988F8F8BFB01EE58FF4F859194919A8F9B
:10102000898F06C02F5F3F4F2D30310509F0C6CFA5
:101030008F89988D892B09F449C04C85463108F079
:101040003DC090916800483010F484E005C04E30F7
:1010500010F082E001C081E0892B80936800483065
:1010600028F4EDE6F0E0ADE6B0E00BC04E3028F03D
:10107000ECE6F0E0ACE6B0E004C0EBE6F0E0ABE6B6
:10108000B0E05081483040F481E090E002C0880F29
:10109000991F4A95E2F710C0242F30E04E3018F423
:1010A0002850304002C02E50304081E090E002C015
:1010B000880F991F2A95E2F7852B8C93898D9A8D3D
:1010C00020E001972FEF8F3F9207D9F78091000220
:1010D000909101028C179D0781F08B8D8E7F8B8FF5
:1010E0009FB7F8941092420280914202809343028B
:1010F000D0930102C09300029FBFDF91CF911F9157
:101100000F91FF90EF90DF90CF900895FC01448500
:10111000463180F5483028F4EDE6F0E0ADE6B0E089
:101120000BC04E3028F4EBE6F0E0ABE6B0E004C0D4
:10113000ECE6F0E0ACE6B0E05081483040F481E00D
:1011400090E002C0880F991F4A95E2F710C0242F43
:1011500030E04E3018F42850304002C02E5030405D
:1011600081E090E002C0880F991F2A95E2F78095F0
:1011700085238C930895FC0189EA91E09183808313
:10118000CF010E948608089520910002309101024B
:101190002817390731F49091430280914202981741
:1011A00019F42FEF3FEF0FC0E0914302F0E0EE5F44
:1011B000FD4F20818091430290E001968F739070E3
:1011C0008093430230E0C9010895209100023091DC
:1011D00001022817390719F020E030E00EC0809195
:1011E00042022091430290E0805C9F4F821B910954
:1011F00060E470E00E94B5149C01C90108950F934A
:101200001F93DC0159968D919C915A97892B49F433
:1012100081E090E013969C938E93129720E030E04B
:1012200097C00FB7F8945B968C915B975196ED91B0
:10123000FC91529750962C91509781FF8DC08081E0
:10124000822B808359968D919C915A97059620E028
:1012500001972FEF8F3F9207D9F75B968C915B97A1
:1012600081FF35C031E040E050E070E010E0832FB6
:1012700090E0862397235196ED91FC9152975096DA
:101280002C915097892B29F0808120952823208349
:1012900003C08081822B808359968D919C915A97AF
:1012A000212F01972FEF8F3F9207D9F7330F4F5F11
:1012B0005F4F48305105D9F65196ED91FC91529708
:1012C000908150968C9150978095892333C031E05E
:1012D00040E050E070E010E0832F90E086239723F9
:1012E0005196ED91FC91529750962C915097892BE5
:1012F00021F08081822B808304C080812095282367
:10130000208359968D919C915A97212F01972FEF09
:101310008F3F9207D9F7330F4F5F5F4F483051052A
:10132000D9F65196ED91FC915297808150969C91FF
:101330005097892B80830FBF59968D919C915A9716
:1013400020E001972FEF8F3F9207D9F721E030E09F
:10135000C9011F910F910895808120952823208332
:1013600071CF20910002309101022817390749F40A
:101370009FB7F894109242028091420280934302F8
:101380009FBF08952091000230910102281739076C
:1013900031F49091430280914202981719F42FEF93
:1013A0003FEF0AC0E0914302F0E0EE5FFD4F808125
:1013B000282F332727FD3095C90108951F93CF9318
:1013C000DF93EC01162F862F60E00E9450108B8D6A
:1013D00081FD04C0812F61E00E948F101C87212FA6
:1013E00030E0C90187509D4FFC0184918D872B51BE
:1013F0003D4FF9016491E62FF0E0EE0FFF1FE5523B
:10140000FD4F859194919F878E87DF91CF911F919A
:101410000895FF920F931F938C01F62E862F61E0A3
:101420000E9450108F2D61E00E948F108F2D90E050
:10143000FC01E750FD4FE491D8015096EC93509792
:101440008B519D4FFC016491E62FF0E0EE0FFF1FE2
:10145000EF52FD4F8591949152969C938E935197A4
:101460001F910F91FF900895FF920F931F938C018E
:10147000F62EFC011382128288EE93E0A0E0B0E029
:1014800084839583A683B78389EA91E091838083DF
:10149000148A138A168A158A108E178A128E118E54
:1014A000838D2170220F8C7F822B838FC801642F44
:1014B0000E94090AC8016F2D0E94DE091F910F9139
:1014C000FF900895FC0160834183128280E2838350
:1014D000148285E082870895FC01908181819817AC
:1014E00019F0892F0E948F100895FF920F931F9378
:1014F0008C01F62E81E00E948D0E80E00E94960EF7
:1015000084E00E949B0EF80181816F2D0E948F1054
:101510001F910F91FF900895EF92FF920F931F93E9
:10152000CF93DF93EC01162F042FF52EE22E60E00F
:101530000E94750A1770186A1EBD0DB407FEFDCF14
:10154000802F9F2D9C01F9012E2D213208F020E2E1
:101550008EB508C080818EBD0DB407FEFDCF3196DB
:101560008EB521502223B1F7CE0161E00E94750AA9
:10157000DF91CF911F910F91FF90EF900895CF933E
:10158000DF93EC0160E00E94750A80E58EBD0DB42A
:1015900007FEFDCF8EB583E78EBD0DB407FEFDCFF0
:1015A0008EB5CE0161E00E94750ADF91CF9108955A
:1015B0001F93CF93DF93EC01162F60E00E94750A12
:1015C0001EBD0DB407FEFDCF1EB5CE0161E00E9429
:1015D000750A812FDF91CF911F9108956FEF0E94BF
:1015E000D80A089561EE0E94D80A089562EE0E941A
:1015F000D80A0895EF92FF920F931F93CF93DF9332
:10160000EC01F62EE72E9B81142F941708F4192F66
:101610008C81882311F000E002C0092F011BCE014C
:1016200060E00E94750A81E68EBD0DB407FEFDCF15
:101630008F2D9E2D9C01F901FEB49FEF07C09EBD2A
:101640000DB407FEFDCF8EB5819311501123B9F76C
:1016500007C08EBD0DB407FEFDCF9EB5015001C081
:101660008FEF0023B1F7CE0161E00E94750A8F2D44
:10167000DF91CF911F910F91FF90EF900895DF922E
:10168000EF92FF920F931F93CF93DF93EC01E62E1F
:10169000D72EF22E9B81142F941708F4192F8C81CA
:1016A000882311F000E002C0092F011BCE0160E089
:1016B0000E94750AFEBC0DB407FEFDCF8E2D9D2D38
:1016C0009C01F901FEB408C080818EBD0DB407FEF7
:1016D000FDCF31968EB511501123B1F706C01EBC57
:1016E0000DB407FEFDCF8EB501500023C1F7CE012A
:1016F00061E00E94750A8F2DDF91CF911F910F91AC
:10170000FF90EF90DF900895CF93DF93EC012223B9
:1017100011F420EA01C020EBCE010E943F0BCE0164
:1017200061E00E946C0ACE0160E00E946C0ADF91C9
:10173000CF9108950F931F93CF93DF93EC01162F52
:10174000042F60E00E94750A1F7110621EBD0DB467
:1017500007FEFDCF1EB50EBD0DB407FEFDCF8EB545
:10176000CE0161E00E94750A812FDF91CF911F9118
:101770000F910895262F4F702295207F242B64E02F
:10178000422F0E949A0B0895CF92DF92EF92FF9220
:101790000F931F938B017A01690167E040E70E9474
:1017A0009A0B90E09C01E5E036952795EA95E1F7E4
:1017B0002170F801208374E0969587957A95E1F77A
:1017C000282F2170F7012083969587959695879508
:1017D0008170F60180831F910F91FF90EF90DF9051
:1017E000CF9008950F931F938C010E94FA0AC801AD
:1017F00067E040E70E949A0B1F910F910895462FD2
:10180000603808F04FE765E00E949A0B0895EF9268
:10181000FF920F931F93CF93DF937C01162FEA0162
:10182000022F60E00E94750A1F7110621EBD0DB488
:1018300007FEFDCF1EB508C088818EBD0DB407FE22
:10184000FDCF21968EB501500023B1F7C70161E0AD
:101850000E94750A812FDF91CF911F910F91FF9008
:10186000EF900895EF92FF920F931F93DF93CF9322
:10187000CDB7DEB728970FB6F894DEBF0FBECDBF49
:101880007C0109831A832B833C834D835E836F83A2
:1018900078878E010F5F1F4F6AE0A801F70122854C
:1018A0000E94070CC70160E1A801F70122850E9490
:1018B000070CC70161E1F70143810E949A0B28964A
:1018C0000FB6F894DEBF0FBECDBFCF91DF911F9151
:1018D0000F91FF90EF9008951F93CF93DF93EC014A
:1018E000162F60E00E94750A1F711EBD0DB407FE21
:1018F000FDCF8EB58FEF8EBD0DB407FEFDCF1EB5AB
:10190000CE0161E00E94750A812FDF91CF911F9176
:1019100008950F931F93CF93DF938C01EB0160E049
:101920000E946C0C482F437F209729F0219711F4D7
:10193000486001C04C60C80160E00E949A0BDF91D2
:10194000CF911F910F910895FF920F931F93CF9303
:10195000DF93EC018B0166E00E946C0CF7EDFF2E2B
:10196000F8220230110511F480E204C001301105A3
:1019700011F488E0F82ACE0166E04F2D0E949A0B00
:10198000CE0166E00E946C0C90E08F1509F491E0A6
:10199000892FDF91CF911F910F91FF9008951F9391
:1019A000CF93DF93EC01162F66E00E946C0C14308D
:1019B00010F047E003C0412F440F4F5F887F482B52
:1019C000CE0166E00E949A0BDF91CF911F9108959E
:1019D0000F931F938C010E94BF0AC8016DE10E9402
:1019E0006C0C482F4660C8016DE10E949A0BC8013B
:1019F0006CE10E946C0C482F4360C8016CE10E94AE
:101A00009A0B81E0F80184831F910F910895FF9252
:101A10000F931F938C01F62E62E00E946C0CE4E0A1
:101A2000F1E0EF0DF11DE49141E050E002C0440F00
:101A3000551FEA95E2F740954823C80162E00E94ED
:101A40009A0B1F910F91FF900895BF92CF92DF9252
:101A5000EF92FF920F931F93DF93CF93CDB7DEB733
:101A600028970FB6F894DEBF0FBECDBF6C01B62E1F
:101A7000E982FA820B831C832D833E834F83588730
:101A8000662369F49C012B5F3F4FFC014285C9012D
:101A9000BE016F5F7F4F50E00E94BE0107C0F6E0BD
:101AA000F61708F43EC081E0681769F4EB2DF0E00A
:101AB000E65FFE4FE491C6016E2FAE014F5F5F4FB0
:101AC000F60122850BC0E62FF0E0E65FFE4FE491C1
:101AD000C6016E2FAE014F5F5F4F21E00E94070CE1
:101AE0000B2D10E0F801E05FFE4FE491C6016E2F70
:101AF000F60143810E949A0BC60162E00E946C0CC1
:101B00000C5F1E4FF801649121E030E002C0220F0B
:101B1000331F6A95E2F7482F422BC60162E00E940C
:101B20009A0B28960FB6F894DEBF0FBECDBFCF91AB
:101B3000DF911F910F91FF90EF90DF90CF90BF90BA
:101B400008950F931F93CF93DF93EC018B018F8543
:101B5000882399F00E94960F2B853C854D855E85E4
:101B6000621B730B840B950B605273408040904056
:101B7000F0F48F858823D9F0EDCFCE0167E10E9484
:101B80006C0C80FF02C080E00DC00115110549F00A
:101B9000CE010E94EE0A90E0959587958770F80136
:101BA000808381E0DF91CF911F910F9108950E9472
:101BB000960F6B877C878D879E871F86DECF60E0C0
:101BC00070E00E94A10D0895CF93DF93EC0160E0D7
:101BD0000E946C0C81FD10C0CE0160E00E946C0C74
:101BE000482F4260CE0160E00E949A0B65E070E0F1
:101BF00080E090E00E94BC0FDF91CF910895CF93D9
:101C0000DF93EC010E94E40DCE0160E00E946C0CB9
:101C1000482F4160CE0160E00E949A0BCE0167E040
:101C200040E70E949A0B8D81882349F0AE014B5FFB
:101C30005F4FCE016AE02A850E94070C04C0CE01E6
:101C400060E00E94070DCE016DE10E946C0C81FFE7
:101C500003C0CE010E94F20ACE0161E00E946C0A2C
:101C6000DF91CF910895CF93DF93EC019881898123
:101C7000981721F0892F61E00E9450109981888186
:101C8000891721F0892F61E00E9450100E94AC0E4C
:101C9000CE0160E00E946C0ACE0161E00E94750AEC
:101CA00065E070E080E090E00E94BC0FCE0165E04E
:101CB0004FE00E94BA0BCE0162E070E00E94A40CDB
:101CC000882311F081E08A83CE0160E070E00E94F9
:101CD000A40CCE0162E070E00E94890CCE0167E0A6
:101CE00040E70E949A0BCE016CE40E94FF0BCE01EC
:101CF0000E94F60ACE010E94F20ACE010E94E40D73
:101D0000CE0160E00E946C0C482F4E7FCE0160E057
:101D10000E949A0BDF91CF910895882319F48CB516
:101D2000806202C08CB58F7D8CBD08959CB5937F79
:101D3000982B9CBD08952CB5382F33702C7F322BF7
:101D40003CBD2DB590E095958795959587958170CB
:101D50002E7F822B8DBD08958AE061E00E948F1056
:101D60008AE061E00E9450108CB580618CBD8CB51A
:101D700080648CBD8DE061E00E9450108BE061E0DA
:101D80000E9450100895823000F5E82FF0E0EE0F29
:101D9000FF1FEC5BFD4F71836083882319F0813056
:101DA000A1F408C0809169008C7F842B8093690026
:101DB000E89A089580916900440F551F440F551FFC
:101DC000837F842B80936900E99A08951F920F9274
:101DD0000FB60F9211242F933F934F935F936F93FE
:101DE0007F938F939F93AF93BF93EF93FF938091D4
:101DF000440290914502892B29F0E0914402F09130
:101E000045020995FF91EF91BF91AF919F918F91FD
:101E10007F916F915F914F913F912F910F900FBEE6
:101E20000F901F9018951F920F920FB60F921124CA
:101E30002F933F934F935F936F937F938F939F93D2
:101E4000AF93BF93EF93FF93809146029091470227
:101E5000892B29F0E0914602F09147020995FF9104
:101E6000EF91BF91AF919F918F917F916F915F9112
:101E70004F913F912F910F900FBE0F901F9018958B
:101E80001F920F920FB60F9211242F933F938F93AF
:101E90009F93AF93BF9380914C0290914D02A0917C
:101EA0004E02B0914F02309150020196A11DB11D1A
:101EB000232F2D5F2D3720F02D570196A11DB11D29
:101EC0002093500280934C0290934D02A0934E02B7
:101ED000B0934F028091480290914902A0914A022A
:101EE000B0914B020196A11DB11D809348029093C1
:101EF0004902A0934A02B0934B02BF91AF919F91C8
:101F00008F913F912F910F900FBE0F901F901895BA
:101F10008FB7F89420914C0230914D0240914E02BF
:101F200050914F028FBFB901CA0108959FB7F8942D
:101F3000209148023091490240914A0250914B024F
:101F400086B5A89B06C08F3F21F02F5F3F4F4F4FB4
:101F50005F4F9FBF542F432F322F2227280F311D51
:101F6000411D511D82E0220F331F441F551F8A95CA
:101F7000D1F7B901CA0108959B01AC017FB7F8946C
:101F80008091480290914902A0914A02B0914B027F
:101F900066B5A89B05C06F3F19F00196A11DB11D44
:101FA0007FBFBA2FA92F982F8827860F911DA11DBB
:101FB000B11D62E0880F991FAA1FBB1F6A95D1F758
:101FC000BC012DC0FFB7F89480914802909149025E
:101FD000A0914A02B0914B02E6B5A89B05C0EF3F25
:101FE00019F00196A11DB11DFFBFBA2FA92F982F7F
:101FF00088278E0F911DA11DB11DE2E0880F991F4A
:10200000AA1FBB1FEA95D1F7861B970B885E9340EA
:10201000C8F2215030404040504068517C4F21155B
:1020200031054105510571F60895789484B58260B3
:1020300084BD84B5816084BD85B5826085BD85B56C
:10204000816085BDEEE6F0E0808181608083E1E81B
:10205000F0E0108280818260808380818160808353
:10206000E0E8F0E0808181608083E1EBF0E0808156
:1020700084608083E0EBF0E0808181608083EAE728
:10208000F0E08081846080838081826080838081B1
:10209000816080838081806880831092C100089570
:1020A000CF93DF93482F50E0CA0187509D4FFC012A
:1020B00034914B515D4FFA018491882369F190E08E
:1020C000880F991FFC01E953FD4FA591B491FC01C4
:1020D000EF52FD4FC591D491662351F42FB7F89478
:1020E0008C91932F909589238C93888189230BC0A1
:1020F000623061F42FB7F8948C91932F90958923D7
:102100008C938881832B88832FBF06C09FB7F89458
:102110008C91832B8C939FBFDF91CF910895482F93
:1021200050E0CA01835F9C4FFC012491CA01875093
:102130009D4FFC0194914B515D4FFA013491332333
:1021400009F440C0222351F1233071F0243028F4E7
:102150002130A1F0223011F514C02630B1F0273023
:10216000C1F02430D9F404C0809180008F7703C07F
:10217000809180008F7D8093800010C084B58F7720
:1021800002C084B58F7D84BD09C08091B0008F7777
:1021900003C08091B0008F7D8093B000E32FF0E00A
:1021A000EE0FFF1FEF52FD4FA591B4912FB7F8949A
:1021B000662321F48C919095892302C08C91892B00
:1021C0008C932FBF0895682F70E0CB01835F9C4FE5
:1021D000FC012491CB0187509D4FFC0144916B5130
:1021E0007D4FFB019491992319F420E030E03CC02D
:1021F000222351F1233071F0243028F42130A1F052
:10220000223011F514C02630B1F02730C1F024304F
:10221000D9F404C0809180008F7703C08091800042
:102220008F7D8093800010C084B58F7702C084B505
:102230008F7D84BD09C08091B0008F7703C08091ED
:10224000B0008F7D8093B000892F90E0880F991F98
:1022500085529D4FFC01A591B4918C9120E030E016
:10226000842311F021E030E0C901089508951F9200
:102270000F920FB60F9211242F933F934F938F938A
:102280009F93EF93FF938091C00082FD1DC040910A
:10229000C60020919102309192022F5F3F4F2F7321
:1022A000307080919302909194022817390771F051
:1022B000E0919102F0919202EF5AFD4F40833093EA
:1022C00092022093910202C08091C600FF91EF918B
:1022D0009F918F914F913F912F910F900FBE0F9033
:1022E0001F901895E091E502F091E602E05CFF4F47
:1022F0008191919120813181821B930B8F7390701A
:10230000892B11F00E94361108951F920F920FB67B
:102310000F9211242F933F938F939F93EF93FF93EB
:102320002091D5023091D6028091D7029091D802A7
:102330002817390731F48091C1008F7D8093C10047
:1023400014C0E091D702F091D802EB56FD4F2081E6
:102350008091D7029091D80201968F7390709093DC
:10236000D8028093D7022093C600FF91EF919F91EE
:102370008F913F912F910F900FBE0F901F90189546
:10238000AF92BF92DF92EF92FF920F931F93CF9382
:10239000DF93EC017A018B01DD24403081EE580798
:1023A00080E0680780E0780711F0DD24D39491E0A5
:1023B000A92EB12CEC89FD89DD2069F0C50108A0AA
:1023C00002C0880F991F0A94E2F7808360E079E0E9
:1023D0008DE390E005C0108260E874E88EE190E043
:1023E000A80197010E94C81421503040404050403D
:1023F000569547953795279580E12030380720F08E
:10240000DD2011F0DD24D6CFE889F9893083EA890F
:10241000FB89208319A2EE89FF89408121E030E009
:10242000C9010C8C02C0880F991F0A94E2F7482B4F
:102430004083EE89FF894081C9010D8C02C0880F5D
:10244000991F0A94E2F7482B4083EE89FF89408167
:10245000C9010E8C02C0880F991F0A94E2F7482B1D
:102460004083EE89FF8980810F8C02C0220F331FC9
:102470000A94E2F7209528232083DF91CF911F91C2
:102480000F91FF90EF90DF90BF90AF900895DC0127
:102490001C96ED91FC911D97E05CFF4F21913191CD
:1024A00080819181281B390B2F733070C9010895E9
:1024B000DC011C96ED91FC911D97E05CFF4F2081A3
:1024C0003181E054F040DF01AE5BBF4F8D919C91B4
:1024D00011972817390719F42FEF3FEF07C08D9197
:1024E0009C91E80FF91F8081282F30E0C9010895E1
:1024F000DC011C96ED91FC911D97E05CFF4F208163
:102500003181E054F040DF01AE5BBF4F8D919C9173
:1025100011972817390719F42FEF3FEF10C08D914D
:102520009C911197E80FF91F20818D919C91119733
:1025300001968F73907011969C938E9330E0C90131
:102540000895DC0191968C919197882339F05496E7
:10255000ED91FC915597808186FFF9CF91961C9261
:102560000895CF93DF93EC01EE85FF85E05CFF4F8C
:1025700020813181E054F0402F5F3F4F2F73307046
:10258000DF01AE5BBF4F8D919C91119728173907E2
:10259000D1F3E05CFF4F80819181E054F040E80F7F
:1025A000F91F6083EE85FF85E05CFF4F3183208358
:1025B000EE89FF89208181E090E00F8C02C0880FB6
:1025C000991F0A94E2F7282B208381E089A3EC89E4
:1025D000FD8980818064808381E090E0DF91CF91EC
:1025E00008951092DC021092DB0288EE93E0A0E0E6
:1025F000B0E08093DD029093DE02A093DF02B093FF
:10260000E00289EB91E09093DA028093D90281E5B0
:1026100092E09093E6028093E50285E992E0909340
:10262000E8028093E70285EC90E09093EA028093C1
:10263000E90284EC90E09093EC028093EB0280EC52
:1026400090E09093EE028093ED0281EC90E0909305
:10265000F0028093EF0282EC90E09093F20280937C
:10266000F10286EC90E09093F4028093F30284E010
:102670008093F50283E08093F60287E08093F7026F
:1026800085E08093F80281E08093F9020895CF936A
:10269000DF930E9415100E943406C2E7D1E10E9428
:1026A000D0052097E1F30E947211F9CFCF92DF920B
:1026B000EF92FF920F931F93CF93DF937C016B01F7
:1026C0008A01C0E0D0E00FC0D6016D916D01D70145
:1026D000ED91FC910190F081E02DC7010995C80FA3
:1026E000D91F015010400115110571F7CE01DF917E
:1026F000CF911F910F91FF90EF90DF90CF900895B1
:102700000F931F93CF93DF93BC018230910510F498
:1027100062E070E0E091FD02F091FE02A0E0B0E026
:1027200040E050E024C08081918186179707D0F067
:102730008617970771F482819381109729F0139679
:102740009C938E9312972CC09093FE028093FD026F
:1027500027C04115510519F08417950718F4EF01AA
:102760008D01AC01DF01828193819C01F9013097D9
:10277000D1F641155105F9F0CA01861B970B84303B
:10278000910580F48A819B810115110521F0F801E2
:102790009383828304C09093FE028093FD02FE0126
:1027A000329645C0FE01E80FF91F619371930297BD
:1027B000998388833CC08091FB029091FC02892B15
:1027C00041F48091A1019091A2019093FC02809329
:1027D000FB024091A3015091A4014115510541F420
:1027E0004DB75EB780919F019091A001481B590B96
:1027F0002091FB023091FC0224173507B0F4CA0186
:10280000821B930B8617970780F0AB014E5F5F4FDB
:102810008417950750F0420F531F5093FC024093CA
:10282000FB02F9016193719302C0E0E0F0E0CF0197
:10283000DF91CF911F910F910895CF93DF939C016A
:10284000009709F48FC0EC0122971B821A826091D5
:10285000FD027091FE026115710581F488819981F4
:10286000820F931F2091FB023091FC022817390739
:1028700039F5D093FC02C093FB0274C0DB0140E049
:1028800050E0AC17BD0708F1BB83AA83FE0121917C
:102890003191E20FF31FAE17BF0779F48D919C9130
:1028A0001197280F391F2E5F3F4F398328831296C7
:1028B0008D919C9113979B838A834115510571F4E7
:1028C000D093FE02C093FD024DC012968D919C9153
:1028D0001397AD01009711F0DC01D3CFDA01139605
:1028E000DC93CE931297FA0121913191E20FF31FFD
:1028F000CE17DF0769F488819981280F391F2E5F71
:102900003F4FFA01318320838A819B8193838283A5
:10291000E0E0F0E0DB0112968D919C911397009717
:1029200019F0BC01FD01F6CFAB014E5F5F4FDB013B
:102930008D919C91840F951F2091FB023091FC0298
:102940002817390779F4309729F41092FE02109273
:10295000FD0202C013821282425050405093FC028A
:102960004093FB02DF91CF91089597FB092E072634
:102970000AD077FD04D02ED006D000201AF470952E
:1029800061957F4F0895F6F7909581959F4F089533
:10299000A1E21A2EAA1BBB1BFD010DC0AA1FBB1F63
:1029A000EE1FFF1FA217B307E407F50720F0A21BD5
:1029B000B30BE40BF50B661F771F881F991F1A9442
:1029C00069F760957095809590959B01AC01BD016C
:1029D000CF010895AA1BBB1B51E107C0AA1FBB1F53
:1029E000A617B70710F0A61BB70B881F991F5A959B
:1029F000A9F780959095BC01CD010895EE0FFF1FBA
:102A00000590F491E02D09942F923F924F925F929E
:102A10006F927F928F929F92AF92BF92CF92DF92EE
:102A2000EF92FF920F931F93CF93DF93CDB7DEB753
:102A3000CA1BDB0B0FB6F894DEBF0FBECDBF0994E7
:102A40002A88398848885F846E847D848C849B843E
:102A5000AA84B984C884DF80EE80FD800C811B814C
:102A6000AA81B981CE0FD11D0FB6F894DEBF0FBE7B
:102A7000CDBFED01089513E0C6E2D3E004C0FE012E
:102A80000E9400152296C832D107C9F7F894FFCFEB
:102A9000524649442052656365697665643A00256B
:102AA00064202D000A0D0053656E643A4661696C1E
:102AB00065640A0D0041636B205061796C6F61643D
:102AC0003A4661696C65640A0D0041636B3A256C96
:102AD000750A0D004E6F772073656E64696E67200E
:102AE000256C750A0D000A0D524632342F65786147
:102AF0006D706C65732F70696E67706169725F6964
:102B000072712F0A0D00524F4C453A2025730A0D61
:102B100000696E76616C69640053656E646572006D
:102B20005265636569766572008101890190018053
:102B3000000503000000000000FF085613E508C46C
:102B400008C209B10900000000B1125613471278FB
:062B5000125812A1120050
:00000001FF
